:020000040000FA
:100000000C945E000C9486000C9486000C94860080
:100010000C9486000C9486000C9486000C94860048
:100020000C9486000C9486000C9486000C94860038
:100030000C9486000C9486000C9486000C94860028
:100040000C94DF060C9486000C94AD060C94870685
:100050000C9486000C9486000C9486000C94860008
:100060000C9486000C948600000000080002010039
:100070000003040700000000000000000000000072
:10008000250028002B0000000000240027002A0083
:10009000040404040404040402020202020203032E
:1000A0000303030301020408102040800102040836
:1000B00010200102040810203A07D40A11241FBEA0
:1000C000CFEFD8E0DEBFCDBF22E0A2EDB1E001C0AE
:1000D0001D92A13CB207E1F711E0A0E0B1E0EAE334
:1000E000FBE102C005900D92A23DB107D9F710E0E7
:1000F000CDE5D0E004C02197FE010E948F0BCC35E6
:10010000D107C9F70E94B7070C94900D0C9400001A
:1001100090E0FC01EC55FF4F249180579F4FFC016C
:100120008491882399F090E0880F991FFC01EA5789
:10013000FF4FA591B491FC01E458FF4F8591949134
:100140008FB7F894EC91E22BEC938FBF0895AF92A8
:10015000BF92CF92DF92EF92FF920F931F93CF93B4
:10016000DF936C017B018B01040F151FEB015E0116
:10017000AE18BF08C017D10759F06991D601ED91AB
:10018000FC910190F081E02DC6010995892B79F74A
:10019000C501DF91CF911F910F91FF90EF90DF90FC
:1001A000CF90BF90AF900895FC01538D448D252FC3
:1001B00030E0842F90E0821B930B541710F0CF9601
:1001C000089501970895FC01918D828D981761F033
:1001D000A28DAE0FBF2FB11D5D968C91928D9F5F4A
:1001E0009F73928F90E008958FEF9FEF0895FC0129
:1001F000918D828D981731F0828DE80FF11D858DDC
:1002000090E008958FEF9FEF0895FC01918D228D6E
:10021000892F90E0805C9F4F821B91098F739927F3
:10022000089582EE91E00E94050121E0892B09F4F6
:1002300020E0822F089580E090E0892B29F00E9431
:10024000110181110C9400000895FC01A48DA80FE8
:10025000B92FB11DA35ABF4F2C91848D90E0019608
:100260008F739927848FA689B7892C93A089B18928
:100270008C91837080648C93938D848D981306C0C9
:100280000288F389E02D80818F7D80830895EF922D
:10029000FF920F931F93CF93DF93EC0181E0888F40
:1002A0009B8D8C8D98131AC0E889F989808185FF10
:1002B00015C09FB7F894EE89FF896083E889F989B2
:1002C00080818370806480839FBF81E090E0DF91B4
:1002D000CF911F910F91FF90EF900895F62E0B8D07
:1002E00010E00F5F1F4F0F731127E02E8C8D8E11C2
:1002F0000CC00FB607FCFACFE889F989808185FF29
:10030000F5CFCE010E942501F1CFEB8DEC0FFD2F33
:10031000F11DE35AFF4FF0829FB7F8940B8FEA89E3
:10032000FB8980818062CFCFCF93DF93EC01888DF2
:100330008823B9F0AA89BB89E889F9898C9185FD60
:1003400003C0808186FD0DC00FB607FCF7CF8C91EE
:1003500085FFF2CF808185FFEDCFCE010E94250180
:10036000E9CFDF91CF91089590E0FC01E859FF4F6C
:100370002491FC01EC55FF4F3491FC01E057FF4FF5
:10038000E491EE23C9F0222339F0233001F1A8F4DF
:10039000213019F1223029F1F0E0EE0FFF1FE4586F
:1003A000FF4FA591B4918FB7F894EC91611126C0DD
:1003B00030953E233C938FBF08952730A9F0283015
:1003C000C9F0243049F7809180008F7D03C080916F
:1003D00080008F7780938000DFCF84B58F7784BDD6
:1003E000DBCF84B58F7DFBCF8091B0008F7780937A
:1003F000B000D2CF8091B0008F7DF9CF3E2BDACF05
:100400003FB7F8948091D3019091D401A091D50188
:10041000B091D60126B5A89B05C02F3F19F00196D3
:10042000A11DB11D3FBFBA2FA92F982F8827BC014E
:10043000CD01620F711D811D911D42E0660F771F76
:10044000881F991F4A95D1F708958F929F92AF9276
:10045000BF92CF92DF92EF92FF924B015C010E941C
:1004600000026B017C010E9400026C197D098E095B
:100470009F09683E734081059105A8F321E0821A27
:100480009108A108B10888EEC80E83E0D81EE11CCF
:10049000F11C81149104A104B10429F7FF90EF909D
:1004A000DF90CF90BF90AF909F908F9008958EBDBA
:1004B00000000DB407FEFDCF8EB508950F931F9376
:1004C000CF93C82F0FEA12E060E0F80182850E9406
:1004D000B4018C2F880F80680E94570280E00E9430
:1004E0005702C82F61E0F80182850E94B4018C2F69
:1004F000CF911F910F9108950F931F93CF93DF9387
:10050000082F162FCFEAD2E060E08A850E94B4015E
:10051000802F880F0E945702812F0E94570261E0AE
:100520008A85DF91CF911F910F910C94B401CF93E5
:10053000DF93D82FC62F0E945E02C0956C2F6823D0
:100540008D2FDF91CF910C947C02CF93DF93D82F26
:10055000C62F0E945E02682F6C2B8D2FDF91CF91EA
:100560000C947C02AF92BF92CF92DF92EF92FF92F7
:100570000F931F93CF93DF935C01C62E8A017901FD
:1005800067EF82E00E947C0260E884E00E949702AC
:1005900060E88AE00E94A50260E081E00E947C029F
:1005A000E501D12CCE018A199B098C159D0528F4F3
:1005B000699189E00E947C02F5CF6CE081E00E94A5
:1005C0007C0260E88DE00E94A502C0EDD7E084E0E7
:1005D0000E945E02D82E219711F08173C1F360E86A
:1005E0008DE00E949702CD2B09F446C086E00E9460
:1005F0005E028B7109F040C08AE00E945E02C82F43
:100600008CE00E945E0287702C2F30E031F1215087
:10061000310993E0220F331F9A95E1F7280F311D1E
:10062000F70131832083CC23F1F0C13108F0C0E120
:100630007801D0E0C701801B910B8C179D07A8F0B3
:100640008D2D8170DF91CF911F910F91FF90EF90D1
:10065000DF90CF90BF90AF90089583E0220F331FBB
:100660008A95E1F7DDCFC1E0E3CF89E00E945E0229
:10067000F70181937F01DECF82E0E4CF089590E01F
:1006800080E00895CF93DF93EC0160E08E810E94BB
:10069000B40161E08E810E94B40160E08E810E940D
:1006A000B4018BE891E00197F1F7DF91CF910895C4
:1006B000CF92DF92EF92FF920F931F93CF93DF932E
:1006C0006C017C0187E0E80EF11CD0E0C0E0062F51
:1006D00010E0B8010C2E02C0759567950A94E2F7F8
:1006E0006170F70181917F010E94B4012196C430AD
:1006F000D10579F7C601DF91CF911F910F91FF903E
:10070000EF90DF90CF900C944203CF92DF92EF9264
:10071000FF920F931F93CF93DF93EC01F62E642F7C
:100720008C810E94B4018D818F3F19F060E00E949E
:10073000B4010F2D10E08F8584FF25C06E0187E086
:10074000C80ED11CF12CE12CB8010E2C02C07595FD
:1007500067950A94E2F76170F60181916F010E943A
:10076000B401FFEFEF1AFF0A88E0E816F10461F721
:10077000CE01DF91CF911F910F91FF90EF90DF900D
:10078000CF900C944203B80184E0759567958A95E3
:10079000E1F7CE010E9458036F2DCE01DF91CF917A
:1007A0001F910F91FF90EF90DF90CF900C94580322
:1007B00040E0682F87E992E00C94850381E00E9475
:1007C000D8038BE39FE10197F1F70895CF93DF936F
:1007D000823029F49091A60298609093A6028093AB
:1007E000AA021092AB0280E48093AC0280E1809375
:1007F000AD0280E58093AE0280919B020E9488004A
:1008000080919C028F3F11F00E94880080919D0290
:100810000E948800C7E9D2E09E01275932408091AA
:10082000A60284FD0AC084E090E0219628173907CB
:100830003CF48E810E948800EFCF88E090E0F5CFF5
:100840008BE39DE00197F1F760E080919B020E94AD
:10085000B40160E080919D020E94B40180919C02ED
:100860008F3F19F060E00E94B4018091A60284FDE0
:1008700034C063E087E992E00E945803CBE4D6E4F9
:10088000CE010197F1F763E087E992E00E945803F7
:100890002197F1F763E087E992E00E94580383E52E
:1008A00092E00197F1F762E087E992E00E94580335
:1008B0008091A60280620E94D80384E08093A70200
:1008C0008CE00E94D8030E94DE0382E08093A8029D
:1008D00086E0DF91CF910C94D80380620E94D80308
:1008E0008BE496E40197F1F78091A60280620E9462
:1008F000D80383E592E00197F1F78091A602806228
:100900000E94D803D5CF9091AA02891710F08FEFDB
:10091000890FE82FF0E0E956FD4F848980680C9438
:10092000D80341E00E94850381E090E00895FB0137
:1009300001900020E9F73197AF01461B570BDC010E
:10094000ED91FC910280F381E02D09948F929F92AA
:10095000AF92BF920F931F93CF93DF93CDB7DEB7C4
:10096000A1970FB6F894DEBF0FBECDBF19A24230DB
:1009700008F44AE08E010F5D1F4F842E912CB12C9C
:10098000A12CA50194010E94590BE62FB901CA01BF
:10099000EA3004F5E05DD801EE938D01232B242B82
:1009A000252B79F790E080E0109729F0BD0187E9C9
:1009B00092E00E949704A1960FB6F894DEBF0FBE96
:1009C000CDBFDF91CF911F910F91BF90AF909F90BE
:1009D0008F900895E95CDFCFCF92DF92EF92FF9284
:1009E0006B017C0141E06DE287E992E00E948503A2
:1009F00066277727CB016C197D098E099F094AE08C
:100A00000E94A6040196FF90EF90DF90CF9008958A
:100A10000F931F93CF93DF93EC0188819981009707
:100A200059F02A813B812617370730F081E0DF91AA
:100A3000CF911F910F9108958B016F5F7F4F0E949F
:100A4000BA0C009759F0998388831B830A832C8101
:100A50003D81232B59F7FC011082E8CF80E0E7CFDE
:100A6000CF93DF93EC0188819981009711F00E9468
:100A7000310C198218821D821C821B821A82DF911E
:100A8000CF9108950F931F93CF93DF93EC010C81C7
:100A90001D810F5F1F4FB8010E940805882391F048
:100AA000288139818C819D816FEC71E0820F931FC9
:100AB0000E94890D1D830C83CE01DF91CF911F9180
:100AC0000F910895CE010E943005F6CFEF92FF926C
:100AD0000F931F93CF93DF93EC01FB01E080F18034
:100AE000E114F10411F10481158101151105A9F03A
:100AF0008C819D81080F191FB801CE010E94080545
:100B0000882399F0288139818C819D81B701820FDA
:100B1000931F0E94890D1D830C83CE01DF91CF911D
:100B20001F910F91FF90EF900895CE010E94300524
:100B3000F4CFEF92FF920F931F93CF93DF93EC01CB
:100B40007B018A01BA010E94080581110BC0CE0108
:100B50000E943005CE01DF91CF911F910F91FF9040
:100B6000EF9008951D830C83B701888199810E94BD
:100B7000890DF0CFFB0101900020E9F73197AF011B
:100B8000461B570B0C9499050F931F93CF93DF933C
:100B9000CDB7DEB729970FB6F894DEBF0FBECDBF35
:100BA0008C01862FF8011182108213821282158225
:100BB00014824AE0BE016F5F7F4F90E00E94E40A1A
:100BC000BE016F5F7F4FC8010E94BA0529960FB61C
:100BD000F894DEBF0FBECDBFDF91CF911F910F9173
:100BE0000895CF93DF93EC01FB018617970749F037
:100BF000608171816115710541F0448155810E94C8
:100C00009905CE01DF91CF9108950E943005F9CF6B
:100C1000FC0180819181009711F00C94310C0895B2
:100C20000F931F93CF93DF9300D000D000D0CDB7A8
:100C3000DEB71A8219821C821B821E821D82BC01B1
:100C4000CE0101960E94F105209195023091960205
:100C50008D819E810FEF1FEF2817390729F58091AD
:100C600091029091920269817A81009749F0611511
:100C70007105C9F5232BD1F1FC01808190E00BC0F7
:100C80006115710599F1232B89F1FB01808190E0B9
:100C900091958195910901E010E0892B11F410E004
:100CA00000E0119501951109CE0101960E940806F8
:100CB0000F3F1F4FF1F068E271E082EE91E00E9479
:100CC000970463E471E082EE91E00E94970481E072
:100CD00026960FB6F894DEBF0FBECDBFDF91CF9141
:100CE0001F910F9108950E94800DD5CF10E000E074
:100CF000DBCF66E471E082EE91E00E94970463E44A
:100D000071E082EE91E00E94970480E0E1CF1F92B3
:100D10000F920FB60F9211242F933F934F935F932F
:100D20006F937F938F939F93AF93BF93EF93FF93B3
:100D300082EE91E00E942501FF91EF91BF91AF916A
:100D40009F918F917F916F915F914F913F912F91E3
:100D50000F900FBE0F901F9018951F920F920FB615
:100D60000F9211242F938F939F93EF93FF93E09112
:100D7000F201F091F3018081E091F801F091F90125
:100D800082FD1BC090818091FB018F5F8F7320914A
:100D9000FC01821741F0E091FB01F0E0EE51FE4FC3
:100DA000958F8093FB01FF91EF919F918F912F91F0
:100DB0000F900FBE0F901F9018958081F4CF1F9257
:100DC0000F920FB60F9211242F933F938F939F93FF
:100DD000AF93BF938091D8019091D901A091DA018E
:100DE000B091DB013091D20123E0230F2D3758F56C
:100DF0000196A11DB11D2093D2018093D80190933B
:100E0000D901A093DA01B093DB018091D3019091D5
:100E1000D401A091D501B091D6010196A11DB11DBB
:100E20008093D3019093D401A093D501B093D601C0
:100E3000BF91AF919F918F913F912F910F900FBED6
:100E40000F901F90189526E8230F0296A11DB11D43
:100E5000D2CFFC0111821082138212821582148279
:100E6000FB0101900020E9F73197AF01461B570BBA
:100E70000C949905CF93DF93E2EEF1E01382128296
:100E800088EE93E0A0E0B0E084839583A683B783E7
:100E90008EE091E09183808385EC90E09587848754
:100EA00084EC90E09787868780EC90E0918B808B34
:100EB00081EC90E0938B828B82EC90E0958B848B1D
:100EC00086EC90E0978B868B118E128E138E148E8B
:100ED000CFEAD2E08AE090E09B878A870E94880070
:100EE00060E08A850E94B40189E00E94880061E088
:100EF00089E00E94B40189E090E09D878C87E7E952
:100F0000F2E01382128280E291E09183808388E094
:100F100084838FEF858387E0868383E0878384E003
:100F2000808785E0818786E0828713861486158610
:100F30001686178681E00E94E60362E671E081E989
:100F400092E00E94290765E471E08BE892E00E943C
:100F500029076FE671E085E892E00E9429076CE7B7
:100F600071E08FE792E0DF91CF910C942907CF9346
:100F7000DF93CDB7DEB7A8970FB6F894DEBF0FBEEC
:100F8000CDBF789484B5826084BD84B5816084BD12
:100F900085B5826085BD85B5816085BD80916E0017
:100FA000816080936E001092810080918100826048
:100FB0008093810080918100816080938100809185
:100FC00080008160809380008091B1008460809374
:100FD000B1008091B00081608093B00080917A0070
:100FE000846080937A0080917A00826080937A0096
:100FF00080917A00816080937A0080917A00806885
:1010000080937A001092C100E091F201F091F30117
:1010100082E08083E091EE01F091EF011082E09197
:10102000F001F091F1018FEC80831092FA01E091D0
:10103000F601F091F70186E08083E091F401F091F0
:10104000F501808180618083E091F401F091F501E8
:10105000808188608083E091F401F091F5018081C6
:1010600080688083E091F401F091F50180818F7DAB
:10107000808382E00E94E6031FB7F8948091D70135
:10108000811124C0EAE9F0E08491EEEAF0E0949165
:10109000E82FF0E0EE0FFF1FEA57FF4FA591B49144
:1010A000EC91E92321F461E08AE00E94B4018AE036
:1010B0000E9488008CB580618CBD8CB580648CBD2D
:1010C0008DE00E9488008BE00E9488008091D7010B
:1010D0008F5F8093D7011FBF61E08091BB020E94A8
:1010E000B4016FE081E00E947C026DE88AE20E9418
:1010F0007C026EE38BE20E947C026EE18DE20E9434
:101100007C0260E08CE20E947C0260E485E10E9447
:101110007C026DE381E10E947C0284E10E945E0218
:10112000837021F463E084E10E94A5020CE310E0E7
:1011300053E0E52EF12C6EE1C62ED12C86E2282E4E
:1011400093E9392E20E2922E30E5832E40E0A42E42
:1011500040E0B42E67E08DE00E947C0229829E016F
:101160002F5E3F4FAE014F5F5F4F61E0CA010E94AB
:10117000B2028111CCC089899A89409709F0C7C011
:101180008091E0018111C3C060E08DE00E947C028B
:1011900039829A829E012F5E3F4FAE014F5F5F4FB3
:1011A00062E0CA010E94B20281110AC099812A81BB
:1011B00092272B8192272C8192272D81291382E05F
:1011C00095E0FE013196AFEAB2E001900D929A955A
:1011D000E1F781116AC06091B202CE0183960E944C
:1011E000C4056091B102CE014D960E94C405609184
:1011F000B002CE0147960E94C4056091AF02CE01B5
:1012000001960E94C4051A8A198A1C8A1B8A1E8AA2
:101210001D8ABE016F5F7F4FCE0141960E94F1058E
:10122000CE0141960E944205BE01695E7F4F0E9439
:1012300066050E944205BE01635E7F4F0E946605FF
:101240000E944205BE016D5D7F4F0E946605BC0194
:101250008BE892E00E94F105CE0141960E940806BB
:10126000CE0101960E940806CE0147960E9408060C
:10127000CE014D960E940806CE0183960E94080674
:1012800040918F025091900260918B0270918C027C
:1012900082EE91E00E94A70063E471E082EE91E0AB
:1012A0000E94970481E08093E10189821A8264E0C0
:1012B00085E00E94970260E88AE00E94A5026981A9
:1012C00089E00E947C026A8189E00E947C0263E0DE
:1012D00081E00E947C0277247A9485E00E945E027D
:1012E0007A94772011F082FFF8CF82E20E945E02AA
:1012F0008B8381E20E945E028C839E012F5E3F4FB2
:10130000AE014F5F5F4F64E0CA010E94B20280915C
:10131000E101882309F44BC01A8219821C821B82C6
:101320001E821D826BE872E0CE0101960E94F105DB
:10133000CE0101960E941006782ECE0101960E94E1
:1013400008067720A1F181E00E9483046CE871E037
:1013500087E992E00E9497046FEC71E08BE892E0DD
:101360000E94BA0568EE73E080E090E00E942502DA
:101370000E94DE0380E00E94830440918902509124
:101380008A02609185027091860287E992E00E944C
:10139000A700F0920301E092020168E873E180E0A7
:1013A00090E00E9425020E94DE031092E1018091EC
:1013B000E101882309F462C01A8219821C821B820F
:1013C0001E821D826BE872E0CE0101960E94F1053B
:1013D000CE0101960E941006782ECE0101960E9441
:1013E000080671104BC081E00E94830465E971E03A
:1013F00087E992E00E9497046FEC71E08BE892E03D
:101400000E94BA0560ED77E080E090E00E9425023E
:101410000E94DE0380E00E94830440918302509189
:10142000840260917F027091800287E992E00E94BD
:10143000A70081E00E948304609102017091030182
:10144000615071097093030160930201072E000C33
:10145000880B990B97FFA0C00E94EC0463EA71E02F
:1014600087E992E00E94970464E971E180E090E0EE
:101470000E9425020E94DE031092E1018091020188
:1014800090910301892B09F07BC081E08093E001FA
:101490008FB7F8944090D8015090D9016090DA014C
:1014A0007090DB018FBF80E00E94830462EB71E0EB
:1014B00087E992E00E9497048091DC019091DD0120
:1014C000A091DE01B091DF01481A590A6A0A7B0A2D
:1014D00088EE481683E058066104710408F450C091
:1014E0008091000190910101181619062CF40197C2
:1014F000909301018093000180910001909101017E
:10150000019751F4D0920101C09200011092E101C3
:101510001092E0010E94DE03809100019091010190
:10152000B8010E94450B3C0181E00E94830462ECFB
:1015300071E087E992E00E949704B301072C000C48
:10154000880B990B77FE2CC00E94EC0463E471E0D9
:1015500087E992E00E9497048091DC019091DD017F
:10156000A091DE01B091DF0188519C4FAF4FBF4F7A
:101570008093DC019093DD01A093DE01B093DF0145
:10158000A114B10409F4E6CD0E941101882309F4E5
:10159000D5CD0E940000D2CD4AE00E94A6045ECFC5
:1015A0004AE00E94A604D2CF8FE792E00E9408068C
:1015B00085E892E00E9408068BE892E00E94080607
:1015C00081E992E00C940806BB27FB015527AA2766
:1015D000880F991FAA1FA41710F0A41B83955051C0
:1015E000B9F7A05DAA3308F0A95DA193009779F738
:1015F000B111B1931192CB010C94FE0ADC01FC01F4
:10160000672F71917723E1F7329704C07C916D9336
:1016100070836291AE17BF07C8F308952F923F926F
:101620004F925F926F927F928F929F92AF92BF92F2
:10163000CF92DF92EF92FF920F931F93CF93DF939E
:10164000CDB7DEB7CA1BDB0B0FB6F894DEBF0FBEFB
:10165000CDBF09942A88398848885F846E847D8448
:101660008C849B84AA84B984C884DF80EE80FD804A
:101670000C811B81AA81B981CE0FD11D0FB6F894C0
:10168000DEBF0FBECDBFED01089597FB072E16F408
:10169000009407D077FD09D00E947B0B07FC05D092
:1016A0003EF4909581959F4F0895709561957F4F79
:1016B0000895A1E21A2EAA1BBB1BFD010DC0AA1F93
:1016C000BB1FEE1FFF1FA217B307E407F50720F0AB
:1016D000A21BB30BE40BF50B661F771F881F991F26
:1016E0001A9469F760957095809590959B01AC016F
:1016F000BD01CF010895AA1BBB1B51E107C0AA1F62
:10170000BB1FA617B70710F0A61BB70B881F991FA2
:101710005A95A9F780959095BC01CD010895EE0FDB
:10172000FF1F0590F491E02D09940F931F93CF9321
:10173000DF938230910510F482E090E0E091BF02E7
:10174000F091C00230E020E0B0E0A0E0309799F4E2
:101750002115310509F44AC0281B390B2430310505
:10176000D8F58A819B816115710589F1FB0193830D
:101770008283FE0111C0408151810281138148178B
:101780005907E0F04817590799F4109761F012963D
:101790000C93129713961C933296CF01DF91CF9141
:1017A0001F910F9108950093BF021093C002F4CFD0
:1017B0002115310551F04217530738F0A901DB011B
:1017C0009A01BD01DF01F801C1CFEF01F9CF90937C
:1017D000C0028093BF02CDCFFE01E20FF31F8193C1
:1017E00091932250310939832883D7CF2091BD02AC
:1017F0003091BE02232B41F4209106013091070164
:101800003093BE022093BD02209104013091050166
:101810002115310541F42DB73EB740910801509193
:101820000901241B350BE091BD02F091BE02E217C5
:10183000F307A0F42E1B3F0B2817390778F0AC01F3
:101840004E5F5F4F2417350748F04E0F5F1F5093D0
:10185000BE024093BD02819391939FCFF0E0E0E000
:101860009CCFCF93DF930097E9F0FC01329713826E
:101870001282A091BF02B091C002ED0130E020E0E1
:101880001097A1F420813181820F931F2091BD0216
:101890003091BE022817390709F061C0F093BE02EB
:1018A000E093BD02DF91CF910895EA01CE17DF07E3
:1018B000E8F54A815B819E0141155105B1F7E901C7
:1018C000FB83EA8349915991C40FD51FEC17FD079B
:1018D00061F4808191810296840F951FE9019983BB
:1018E0008883828193819B838A83F0E0E0E0129673
:1018F0008D919C9113970097B9F52D913C9111977B
:10190000CD010296820F931F2091BD023091BE023D
:101910002817390739F6309751F51092C002109206
:10192000BF02B093BE02A093BD02BCCFD383C283DB
:1019300040815181840F951FC817D90761F44E5F0C
:101940005F4F88819981480F591F518340838A8155
:101950009B81938382832115310509F0B0CFF093E9
:10196000C002E093BF029ECFFD01DC01C0CF138215
:101970001282D7CFB0E0A0E0E0ECFCE00C94100BBA
:101980008C01009751F4CB010E94950B8C01C8018A
:10199000CDB7DEB7E0E10C942C0BFC01E60FF71F8E
:1019A0009C0122503109E217F30708F49DC0D901C8
:1019B000CD91DC911197C617D70798F0C530D105A6
:1019C00030F3CE0104978617970708F3C61BD70B91
:1019D0002297C193D1936D937C93CF010E94310CD8
:1019E000D6CF5B01AC1ABD0A4C018C0E9D1EA09196
:1019F000BF02B091C002512C412CF12CE12C109768
:101A000031F58091BD029091BE028815990509F0CB
:101A10005CC04616570608F058C0809104019091AA
:101A20000501009741F48DB79EB740910801509190
:101A30000901841B950BE817F90708F055C0F093CE
:101A4000BE02E093BD02F90171836083A0CF8D9146
:101A50009C91119712966C90129713967C90139705
:101A6000A815B90559F56C0142E0C40ED11CCA1481
:101A7000DB0420F1AC014A195B09DA0112961597D3
:101A800080F06282738251834083D9016D937C938D
:101A9000E114F10471F0D7011396FC93EE931297C1
:101AA00076CF22968C0F9D1FF90191838083F301DD
:101AB000EFCFF093C002E093BF0269CF48165906FA
:101AC00008F42C017D01D3019ACFCB010E94950B24
:101AD0007C01009749F0AE01B8010E94770DC80162
:101AE0000E94310C870153CF10E000E050CFFB0182
:101AF000DC0102C001900D9241505040D8F708958A
:101B0000FB01DC018D91019080190110D9F3990B33
:101B10000895FB01DC0101900D920020E1F708958A
:101B200010E0CDE5D0E004C0FE010E948F0B2196AD
:101B3000CE35D107C9F7F894FFCF1E000100000091
:101B4000C1028000000000004701A700D4009401FA
:101B50000501E300F700000000009104A7003F0327
:101B60003E03466F756E6420494420696E2076619D
:101B70006C6964494473206172726179000D0A00D6
:101B80004E4F5420666F756E6420696E2076616CCE
:101B90006964494473206172726179003130322086
:101BA00038312032332034310057656C636F6D65F6
:101BB000204261636B00496E636F727265637420CB
:101BC00049442E2E2E0053756363657373210041C3
:101BD00063636573732044656E6965640020617496
:101BE00074656D707473206C656674004465766905
:101BF00063652044697361626C6564005472792086
:0C1C0000616761696E20696E3A20000087
:107E0000112484B714BE81FFF0D085E080938100F7
:107E100082E08093C00088E18093C10086E0809377
:107E2000C20080E18093C4008EE0C9D0259A86E02C
:107E300020E33CEF91E0309385002093840096BBD3
:107E4000B09BFECF1D9AA8958150A9F7CC24DD24C4
:107E500088248394B5E0AB2EA1E19A2EF3E0BF2EE7
:107E6000A2D0813461F49FD0082FAFD0023811F036
:107E7000013811F484E001C083E08DD089C08234E0
:107E800011F484E103C0853419F485E0A6D080C0E4
:107E9000853579F488D0E82EFF2485D0082F10E0AE
:107EA000102F00270E291F29000F111F8ED06801E7
:107EB0006FC0863521F484E090D080E0DECF843638
:107EC00009F040C070D06FD0082F6DD080E0C81688
:107ED00080E7D80618F4F601B7BEE895C0E0D1E017
:107EE00062D089930C17E1F7F0E0CF16F0E7DF06D8
:107EF00018F0F601B7BEE89568D007B600FCFDCFD4
:107F0000A601A0E0B1E02C9130E011968C91119780
:107F100090E0982F8827822B932B1296FA010C0160
:107F200087BEE89511244E5F5F4FF1E0A038BF0790
:107F300051F7F601A7BEE89507B600FCFDCF97BE46
:107F4000E89526C08437B1F42ED02DD0F82E2BD052
:107F50003CD0F601EF2C8F010F5F1F4F84911BD097
:107F6000EA94F801C1F70894C11CD11CFA94CF0C13
:107F7000D11C0EC0853739F428D08EE10CD085E9AC
:107F80000AD08FE07ACF813511F488E018D01DD067
:107F900080E101D065CF982F8091C00085FFFCCF94
:107FA0009093C60008958091C00087FFFCCF809118
:107FB000C00084FD01C0A8958091C6000895E0E648
:107FC000F0E098E1908380830895EDDF803219F02E
:107FD00088E0F5DFFFCF84E1DECF1F93182FE3DFCA
:107FE0001150E9F7F2DF1F91089580E0E8DFEE27F6
:047FF000FF270994CA
:027FFE00040479
:00000001FF
